:1000000050C400006DC400006BC4000069C400004F
:1000100067C4000065C4000063C4000061C4000040
:100020005FC400005DC400005BC4000059C4000050
:100030000C94041055C4000053C4000051C40000C7
:100040004FC400004DC400000C94531049C400007C
:1000500047C4000045C4000043C4000041C4000080
:100060003FC400003DC400003BC4000039C4000090
:1000700037C4000035C4000033C4000031C40000A0
:100080002FC400002DC400002BC4000029C40000B0
:1000900027C4000041422121BB07BB079B079B07E8
:1000A0000000000000000000000000000000A0C2EE
:1000B000000000000000000000000000000020C25E
:1000C0000000803F9A99993E0AD7A33C0000803FE8
:1000D000CDCCCC3D9A99993E0000803F0000803FF6
:1000E0002B3F0C37392F2732263800303128212C6E
:1000F00000000002030304002E04D705FD012704BD
:10010000580600010001000100010001000100018A
:1001100000018040FFFFFFFFFFFFFFFFFFFFFFFF2A
:10012000FFFFFFFFFFFFFFFFFFFF7F7F7F3F3F3F9F
:100130003F3F7F7FFFFFFFCF0F0F0F0F0F0F0F0707
:10014000070707070707070703030303030303035F
:10015000030303030303030303030303030303036F
:1001600003030303030707070F0F0F1F1F3F3F7F03
:10017000FFFFFFFFFFFFFFFFFFFFFFFFFFFFFFFF8F
:10018000FFFFFFFFFFFFFFFFFFFFFFFFFFFFFFFF7F
:10019000FFFFFFFFFFFFFFFFFFFFFFFFFFFFFFFF6F
:1001A000FF7F1F07030301010000000000000000A3
:1001B000000000000001071F7FFEF8E0C000000003
:1001C000000000000000000000000000000000002F
:1001D000000000000000000000000000000000001F
:1001E000000000000000000000808080808080808F
:1001F00080808181838387878787C7C7CFFFFFFF81
:10020000FFFFFFFFFFFFFFFFFFFFFFFFFFFFFFFFFE
:10021000FFFFFFFFFFFFFFFFFFFFFFFFFFFFDFC746
:10022000C1C0C0C0C0C0C0C0E0E0E0E0E0E0E0E0CD
:10023000E0E0E0C0C0C0C0C0C0E1EFFFFFFFFEFED5
:10024000FEFEFEFEFCFE7E7E7E7E7E7E7E7E7E7ED0
:100250007E7E7E7E7E7E7F7F7F7F7FFFFFFFFFFF34
:10026000FFFFFFFFFFFFFFFFFFFFFFFFFFFFFF7F1E
:100270003FBFBFBF7F7FFFFFFFFFFFFFFF7F7F7F8E
:100280003F3F1F1F1F0F0F0F0F3FFFFFFFFFFFFF1E
:10029000FFFFFFFFFFFFFFFFFFFFFFFFFFFFFFFF6E
:1002A000FFFFFFFFFFFFFFFFFFFFFFFFFFFFFFFF5E
:1002B000FFFFFFFFFFFFFFFFFFFFFFFFFFFFFFFF4E
:1002C000FFFFFFFFFFFEFCFCF8F8F0F0F0F0E0E0CD
:1002D000E0E0E0E0E0E0E0F0F0F0F0F0F0F0F0F08E
:1002E000F0F0F8F8F8F8F8F9F9F9F9F9F9F1F1E0BE
:1002F000E2C78F18393B1E0080C0F0FCFCFCFCFC00
:10030000FEFEFEFEFEFEFEFEFEFEFFFFFFFFFFFF07
:10031000FFFFFFFFFFFFFF3F3F7FFFFFFFFFFFFFED
:10032000FFFFFFFFFFFFFFFFFFFFFFFFFFFFFFFFDD
:10033000FFFFFFFFFFFFFFFF7F8F07230303070F71
:100340000F3F7FFFFFFFFFFFFFFFFFFFFFFFFFFFED
:10035000FFFFFFFFFFFFFFFFFFFFFFFFFFFFFFFFAD
:10036000FFFFFFFFFFFFFFFFFFFFFFFFFFFFFF7F1D
:100370007F7F7F7F7F7F7F7F7F7F3F3F3F3F3F3F0D
:100380003F3F3F3F3F3F3F3F3F3F7FFFFFFFFFFF7D
:10039000FF7FFFFFFFFF2000000000030F3FFFFF74
:1003A000FFFFFFFFFFFFFFFFFFFFFFFFFFFFFFFF5D
:1003B000FFFFFFFFFFFFFF1F020000000000000023
:1003C00000000001030F7FFFFFFFFFFFFFFFFFFFA4
:1003D000FFFFFFFFFFFFFFFFFFFFFFE7E3C3830117
:1003E0000101010101000000000000F0F0F0F0F058
:1003F000F0F0F0F0F0F0F0F0F0F8F8F8F8F8F8F8C5
:10040000F8F8F88080A0E0E0C0F0FE7F7F7F7F7F7B
:100410003F00FFFFFFFFFE0000000000000001079B
:100420001F3F7F7F7F7FFFFFFFFFFFFFFFFFFFFF7C
:10043000FFFFFFFFFFFFFFF0800000000000000053
:1004400000000000000000030F1F1F1F1F0F0F0FF1
:100450000F0F0F0F0F0F0F0F0F0F0F8FC7C7C7C74C
:10046000C6C7C7C7C7C7C6C2C2E2E2E1E1E1E1E170
:10047000E3E3E3F1F1F1F1F0F0F0F0E1C18100002C
:100480000000000000000000000000008080C0E0CC
:10049000F8FEFFFFFFFFFFFFF8F0C0C0C0C0C0C004
:1004A000C0C0C0C0C0C6C7C7C7C7C7C7C3C3C3C310
:1004B000C3C3C3C3C38383838380808080808080E1
:1004C000808080808080808080808080808080802C
:1004D000C0C0C0C0C0C0C0C0C0C0C0C0C0C0E0E0DC
:1004E000E0E0E0E0E0E0E0E0E0E0E0F0F0F0F0F0BC
:1004F000F0F0F0F0F0F0F0F8F8F8F8F8F8F8F8F8B4
:10050000FCFCFCFCFCFCFCFCFCFCFEFEFEFEFEFE1F
:10051000FFFFFFFF54562A3A04060104001B041B88
:1005200000040E0400101800000404040010000071
:1005300000180403001F111F00021F00001D1517E3
:100540000015151F0007041F0017151D001F151D9E
:100550000001011F001F151F0017151F00000A00D2
:100560004656207F0608010600000000000000003B
:100570005F000000000700070000147F147F1400D4
:10058000242A7F2A12002313086462003649562069
:100590005000000807030000001C22410000004139
:1005A000221C00002A1C7F1C2A0008083E080800A4
:1005B0000080703000000808080808000000606033
:1005C00000002010080402003E5149453E00004250
:1005D0007F4000004261514946002141494D3300AE
:1005E0001814127F10002745454539003C4A4949F7
:1005F00030004121110907003649494936000649B2
:1006000049291E00000014000000004034000000D2
:100610000008142241001414141414000041221480
:1006200008000201510906003E415D594E007C124E
:1006300011127C007F49494936003E414141220068
:100640007F4141413E007F49494941007F090909F5
:1006500001003E4149497A007F0808087F000041B7
:100660007F4100002040413F01007F0814224100EB
:100670007F40404040007F021C027F007F04081042
:100680007F003E4141413E007F09090906003E418D
:1006900051215E007F091929460026494949320047
:1006A00001017F0101003F4040403F001F204020EA
:1006B0001F003F4038403F006314081463000304E8
:1006C00078040300615149454300007F41414100E6
:1006D000020408102000004141417F000402010291
:1006E0000400404040404000000307080000205440
:1006F000545478007F284444380038444444280047
:10070000384444287F0038545454180000087E09A7
:10071000020018A4A4A47C007F080404780000440C
:100720007D4000002040403D00007F102844000034
:1007300000417F4000007C04780478007C080404B9
:100740007800384444443800FC1824241800182445
:100750002418FC007C080404080048545454240065
:1007600004043F4424003C4040207C001C204020E6
:100770001C003C4030403C004428102844004C9071
:1007800090907C004464544C4400000836410000C2
:10079000000077000000004136080000020102045A
:1007A00002003C2623263C0000407A10F35A00A0A9
:1007B000724E18090010A5D4E80000E8764817002A
:1007C00000E40B54020000CA9A3B000000E1F5056A
:1007D000000080969800000040420F000000A086B4
:1007E00001000000102700000000E80300000000E6
:1007F0006400000000000A0000000000010000008A
:1008000000002C76D888DC674F0823DFC1DFAE59A3
:10081000E1B1B796E5E3E453C63AE651997696E836
:10082000E6C28426EB898C9B62ED407C6FFCEFBCBA
:100830009C9F40F2BAA56FA5F490055A2AF75C93E5
:100840006B6CF9676DC11BFCE0E40D47FEF520E61B
:10085000B500D0ED902E0300943577050080841EFE
:10086000080000204E0A000000C80C333333330F59
:10087000986E12831141EF8D2114893BE65516CFF6
:10088000FEE6DB18D1844B381BF77C1D901DA4BB02
:10089000E424203284725E228100C9F124ECA1E5B7
:1008A0003D2711241FBECFEFD0E1DEBFCDBF11E049
:1008B000A0E0B1E0E0EBFAE200E00BBF02C007907D
:1008C0000D92A23AB107D9F727E0A2EAB1E001C040
:1008D0001D92AA34B207E1F70E94F70E0C94561548
:1008E0008FCBFC01A681B7818C91228190E0022EF2
:1008F00002C0959587950A94E2F780FD06C0848131
:100900008F5F848381E0818315828481853658F0EE
:1009100084E68483118283818F5F8B3F10F483830D
:1009200002C08AEF83838C9190E002C095958795F1
:100930002A95E2F780FF0FC01482138281818823F9
:1009400051F085818F5F858391E09083803118F02D
:10095000158210821182089588E0662314F4439A68
:1009600001C043984198419A660F8150B1F70895AC
:100970004298F2CF08950F931F93CF93DF938C018A
:10098000D62FC42F62956F70605FF2DF6D2F6F708E
:10099000C801EEDF6C2F6F706055C801E9DFDF9191
:1009A000CF911F910F910895429AD6CF0895FF924B
:1009B0000F931F93CF93DF938C01D0E06894FF24B3
:1009C000F7F84D2F60E0C801D6DFCF2D60E0C801F9
:1009D000EBDFC150D9F7DF5FD83099F7DF91CF91C6
:1009E0001F910F91FF900895CF93DF93EC01429AEE
:1009F000449A419A409A439A87B18F6187B92FEF01
:100A000080E792E0215080409040E1F700C0000074
:100A10004498429860E4CE019FDF61EACE019CDFFA
:100A200060ECCE0199DF66EACE0196DF62EACE0184
:100A300093DF6FE2CE0190DF68EFCE018DDF60E0E3
:100A4000CE018ADF67E2CE0187DF61E8CE0184DF75
:100A500066E1CE0181DF6CEACE017EDF60E0CE018F
:100A60007BDF6FEACE0178DFCE01A1DFDF91CF918E
:100A700008952F923F924F925F926F927F928F9242
:100A80009F92AF92BF92CF92DF92EF92FF920F931D
:100A90001F93CF93DF93559A569880EB8093DB009A
:100AA00080E68093DF001092DE0082E08093E20017
:100AB0009CE09093E30097E39093E4008093D80048
:100AC00088EF90E0712C0F2EFDEECF2ED12CF02D63
:100AD0000F2EFEEEEF2EF12CF02D0FEE10E060EF5A
:100AE00070E041EF50E0C2EFD0E0A3EFB0E00F2E96
:100AF000F4EFAF2EB12CF02D0F2EF5EF8F2E912CA1
:100B0000F02D0F2EF6EF2F2E312CF02D66246A9447
:100B10000F2EF7EF4F2E512CF02D272D2295207FF1
:100B2000F6012083F701108220ECF8012083FB01FD
:100B30001082FA011082FC01259134912295220F36
:100B4000207E2883FC012591349136952795369592
:100B50002795369527952C93F5011082F401108284
:100B6000F1016082F201608273940296FDE07F12CF
:100B7000D4CFDF91CF911F910F91FF90EF90DF9035
:100B8000CF90BF90AF909F908F907F906F905F902D
:100B90004F903F902F9008954F925F926F927F9267
:100BA0008F929F92AF92BF92CF92DF92EF92FF927D
:100BB0000F931F93CF93DF930F2EFDEECF2ED12CEB
:100BC000F02D80EDE60188830F2EFEEEEF2EF12C46
:100BD000F02DF70110820FEE10E080ECE801888321
:100BE00040EF50E0FA01108221EF30E0E901188275
:100BF00070E0660F771FDB01A856BF4FFD0185919E
:100C00009491E82FE295EE0FE07E82EF90E0EC0108
:100C1000E883FD01A591B491B695A795B695A795E2
:100C2000B695A795C3EFD0E0A883A4EFB0E01C92DF
:100C30000F2EF5EFAF2EB12CF02DF50110820F2EF7
:100C4000F6EF8F2E912CF02D55245A94F4015082FA
:100C50000F2EF7EF6F2E712CF02DF30150820F2E17
:100C6000F0EE4F2EF02DF6014082F7011082F801D0
:100C70001082FA011082F901108264567F4FFB0145
:100C8000259134912295220F207EFC012083FB01C7
:100C90008591949196958795969587959695879544
:100CA00088831C92E5011882F4015082E301588286
:100CB000DF91CF911F910F91FF90EF90DF90CF9038
:100CC000BF90AF909F908F907F906F905F904F906C
:100CD00008959C01FC01E750FF4F1082319610826D
:100CE000329710823396108280EE8093ED0088E078
:100CF0008093EF00AAEFB0E082E08C9370E0FB01FC
:100D0000EA56FF4F859194918C93FB01EC56FF4F6F
:100D1000859194918C9385E58C938C938C938C9393
:100D20008C93E9EDF0E0908194FDFDCFEFEEF0E0E3
:100D3000808180648083F901E750FF4F80818F5F5D
:100D4000808308959C0180EE8093ED0088E080937D
:100D5000EF00EAEFF0E080E38083108281E080839F
:100D600095E590839083908390839083E9EDF0E004
:100D7000908194FDFDCFEFEEF0E080818064808370
:100D8000F901E750FF4F80818F5F80830895CF92F4
:100D9000DF92EF92FF920F931F93CF93DF935091C7
:100DA000FA00252F30E0359527953595279535950F
:100DB000279535952795FC01E450FF4F2083332775
:100DC0002230310524F022303105E9F16BC0FC01FD
:100DD000E052FF4F5083EAEFF0E02081DC01AF5199
:100DE000BF4F2C93208111962C932081FC01ED5153
:100DF000FF4F208331968C0108511F4F0F2EFAEFC1
:100E0000CF2ED12CF02D5996E601288120832C91EC
:100E1000241748F431E0320F3C9350817B01E20EFD
:100E2000F11CE70158833196E017F10769F710923A
:100E3000EE0020EC2093EF00FC01E850FF4F2081F2
:100E40002F5F208343C0FC01E851FF4F5083319650
:100E50008C0100511F4F0F2EFAEFCF2ED12CF02D09
:100E6000DC01A550BF4FE601288120832C91241777
:100E700048F431E0320F3C9350817B01E20EF11CCB
:100E8000E70158833196E017F10769F71092EE00F9
:100E900020EC2093EF00FC01E850FF4F20812F5FF2
:100EA000208314C0FC01E051FF4F50833196BC01F8
:100EB00068507F4FAAEFB0E02C912193E617F70717
:100EC000D9F71092EE0020EC2093EF00FC01E550E2
:100ED000FF4F2081241303C031968FEF8083DF9171
:100EE000CF911F910F91FF90EF90DF90CF900895D9
:100EF0002F923F924F925F926F927F928F929F922A
:100F0000AF92BF92CF92DF92EF92FF920F931F9317
:100F1000CF93DF9300D000D000D0CDB7DEB74C0127
:100F2000FC01EB59FE4F80818F5F808340E050E0F1
:100F300090E00F2EFDEEEF2EF12CF02D6EEE70E016
:100F40006F010FEE10E00F2EF0ECBF2EF02DAAEF88
:100F5000B0E0892F8295807FF7018083FB0180813B
:100F600085FF1CC0F6011082F80120812F7091F0DE
:100F7000FA01E350FF4FE80DF91D215030E02250F7
:100F80003F4F240F351F280D391D8C918193E21797
:100F9000F307D9F7FB011082F801B0829F5F485F29
:100FA0005F4F9830B1F6E12CF12C00E010E0312CCD
:100FB000212C370124019E828D82D801A051BF4F80
:100FC000FD018491980128513F4F7901F9017491F5
:100FD000769576957695880F880F880F780F272F4E
:100FE00030E0FD018491A80140525F4FFA01649105
:100FF00090E0880F991F880F991F880F991F669599
:1010000066956695860F911D01962817390774F528
:10101000832C922CA12CB12CCD80DE80BA2CA92C53
:10102000982C88242C0D3D1DF901E350FF4F808141
:10103000880E911CA11CB11C7F5F272F30E0FD01A1
:101040008491FA01649190E0880F991F880F991F8D
:10105000880F991F669566956695860F911D019676
:1010600028173907DCF2DE82CD8204C0832C922C53
:10107000A12CB12CFA01849190E0809590959C016F
:1010800027703327C501B40104C0969587957795DD
:1010900067952A95D2F769837A838B839C83249101
:1010A000F7014491F301E054FF4FC590D590E590CE
:1010B000F490F301E056FF4F85909590A590B49081
:1010C00030E0241B31092F5F3F4F41E050E060E0EA
:1010D00070E004C0440F551F661F771F2A95D2F792
:1010E000CB01BA01615071098109910929813A81C5
:1010F0004B815C8162237323842395230E94861194
:10110000A70196010E943C12A50194010E94B6100D
:10111000D2016D937D938D939D932D010F5F1F4F92
:10112000B4E06B0E711C0830110509F046CF26960D
:101130000FB6F894DEBF0FBECDBFDF91CF911F91E8
:101140000F91FF90EF90DF90CF90BF90AF909F9066
:101150008F907F906F905F904F903F902F90089569
:10116000DF92EF92FF920F931F93CF93DF937B0158
:10117000EC01D12C4D2D60E0C701FDDB8E01005844
:101180001F4F6991C70110DCC017D107D1F7D39465
:10119000E80188E0D812EECFDF91CF911F910F9137
:1011A000FF90EF90DF900895CF92DF92EF92FF9241
:1011B0000F931F93CF93DF93FC01922F293008F0F8
:1011C00098E0A92FB0E09D01240F311D2034310596
:1011D00014F040E4491B66230CF46FE7842F8695D6
:1011E0008695869570E090E8899F600D711D1124A9
:1011F00021E030E00A2E02C0220F331F0A94E2F7EA
:101200002150822F90E04770C42ED12C202330E053
:101210007F01E60EF71E8C01042E02C0000F111F85
:101220000A94E2F7102F1095E70158811523E90180
:1012300002C0CC0FDD1F4A95E2F7AE01412BE7015A
:101240004883AD014C0D5D1D49305105C4F0605817
:101250007F4F48E050E04C195D09E60FF71F042E60
:1012600002C0959587950A94E2F7809500818023C6
:1012700002C0359527954A95E2F7282B2083DF9108
:10128000CF911F910F91FF90EF90DF90CF90089535
:101290002F923F924F925F926F927F928F929F9286
:1012A000AF92BF92CF92DF92EF92FF920F931F9374
:1012B000CF93DF93CDB7DEB760970FB6F894DEBF5C
:1012C0000FBECDBFF90132965490319644903196BD
:1012D00054913196649032967491E42FF0E0E60DCB
:1012E000F11DE134F1051CF0E0E46E2E641AE62DE8
:1012F000F0E03796DF010AF417967D01F594E79444
:10130000F594E794F594E794FB86EA861E141F048F
:101310000CF452C083C0851508F43CC0481608F48C
:1013200039C090E02D813E81821B930BEF81F885BF
:101330008E9FA0018F9F500D9E9F500D11249A01EA
:10134000280D391D388B2F878A819B81860F911D2F
:10135000813891052CF06894CC24C7F8C61A01C0D6
:10136000C984CC20B9F010E0C9828F859889810F9B
:10137000911D8E0D9F1DFC012491211144C0F70188
:101380002491243509F03FC01230E8F119811F5F24
:101390001C1558F3F50181915F018111BCCFFC81CF
:1013A000FF5FFC838F2F90E028E0720E4A855B85FB
:1013B00084179507BCF032C079011C01742E80E0BF
:1013C00090E01C82E52FF0E0FB83EA830D871E8707
:1013D0006C87252D30E03E832D83E72FF0E0F887E2
:1013E000EF8359874A815B81849F9001859F300DEF
:1013F000949F300D1124490158E0850E911CAD8455
:10140000BE846C85C7CFFC010491DD24D394D60E35
:10141000262D472DC101C8DE6D2DB9CF60960FB6C0
:10142000F894DEBF0FBECDBFDF91CF911F910F911A
:10143000FF90EF90DF90CF90BF90AF909F908F90F4
:101440007F906F905F904F903F902F9008958F9274
:101450009F92AF92BF92CF92DF92EF92FF920F9343
:101460001F93CF93DF937C016901F901A49031961A
:10147000849190E007969C0112F4295F3F4F3595C7
:1014800027953595279535952795862F90E08A0DD8
:10149000911D813891051CF080E8A82EA61AC42F52
:1014A000D0E0CE01820F911D099714F4822E03C063
:1014B00028E0822E841A882069F1D695DC2FCC276B
:1014C000D795C795B12C02E010E02A2D260F962E55
:1014D0006FEF6A0D70E06F5F7F4F12C031E0390F20
:1014E0008491DA01A90FB11D8C933196932F321399
:1014F000F5CF060F171FB394C058DF4FB81451F043
:10150000AA20C9F3F601E00FF11F992DA7014C0F96
:101510005D1FE4CFDF91CF911F910F91FF90EF906E
:10152000DF90CF90BF90AF909F908F900895FC0177
:101530009C5F1192E817F907E1F708958F929F9247
:10154000AF92BF92CF92DF92EF92FF920F931F93D1
:10155000CF93DF93EC018B018A859B85803E2EE241
:10156000920720F401969B878A8706C01A8A1B8AF5
:101570001C8A1D8A1D861C868E849F84A888B98833
:10158000F8012085318542855385C501B40152D6C5
:101590008823F1F020E030E0A901C501B4014AD66A
:1015A0008823B1F0EA84FB84B70180E090E0AED6F6
:1015B0009B01AC0160E070E080EF92E43FD66A8B63
:1015C0007B8B8C8B9D8BFD86EC861B861A861FC0C1
:1015D000EC84FD84CA84DB84EC14FD0478F4B60149
:1015E00080E090E093D69B01AC0160E070E080EF7A
:1015F00092E424D66A8B7B8B8C8B9D8BEE0CFF1C2C
:10160000EC14FD0420F41A8A1B8A1C8A1D8AF80136
:101610002085318542855385C501B40129D7181627
:101620004CF48A899B89AC89BD89B0588A8B9B8B85
:10163000AC8BBD8BF80180859185A285B3858E87A3
:101640009F87A88BB98BDF91CF911F910F91FF904E
:10165000EF90DF90CF90BF90AF909F908F900895C4
:10166000AF92BF92CF92DF92EF92FF920F931F93B0
:10167000CF93DF93CDB7DEB72A970FB6F894DEBFCE
:101680000FBECDBF5C016B017A01CA0150DFF601CC
:1016900060817181828193818E010F5F1F4F22E0F3
:1016A00046E04DD700E011E020E635E040E060E0A4
:1016B000C701EEDD8E010F5F1F4F20E635E040E0F1
:1016C0006AE4C701E5DD0BE011E020E635E040E02B
:1016D00062E7C701DDDDF60164817581868197814E
:1016E0008E010F5F1F4F22E046E029D70DE011E089
:1016F00020E635E048E060E0C701CADD8E010F5FFB
:101700001F4F20E635E048E06AE4C701C1DD08E18B
:1017100011E020E635E048E062E7C701B9DDF601F7
:1017200064897589868997898E010F5F1F4F22E032
:1017300046E005D70BE111E020E635E040E160E04E
:10174000C701A6DD8E010F5F1F4F20E635E040E1A7
:101750006AE4C7019DDD08E111E020E635E040E1E3
:1017600062E7C70195DDF601608571858285938505
:101770008E010F5F1F4F22E046E0E1D608E211E044
:1017800020E635E048E160E0C70182DD8E010F5FB1
:101790001F4F20E635E048E16AE4C70179DD02E346
:1017A00011E020E635E048E162E7C70171DDF501AF
:1017B00062897389848995898E010F5F1F4F22E0AA
:1017C00046E0BDD620E635E040E26AE4C70160DDD0
:1017D00004E311E020E635E040E260E0C70158DDB7
:1017E0000FE311E020E635E040E26FE6C70150DD8F
:1017F000F60160897189828993898E010F5F1F4F7D
:1018000022E046E09CD603E411E020E635E048E221
:1018100060E0C7013DDD8E010F5F1F4F20E635E020
:1018200048E26AE4C70134DD00E511E020E635E076
:1018300048E260E7C7012CDD02E511E020E635E073
:1018400048E265E7C70124DDF601608D718D828D68
:10185000938D8E010F5F1F4F22E046E070D605E5A5
:1018600011E020E635E040E360E0C70111DD8E01C4
:101870000F5F1F4F20E635E040E36AE4C70108DD53
:1018800002E311E020E635E040E362E7C70100DD56
:10189000F601648D758D868D978D8E010F5F1F4FBC
:1018A00022E046E04CD600E611E020E635E048E3D1
:1018B00060E0C701EDDC8E010F5F1F4F20E635E0D1
:1018C00048E36AE4C701E4DC06E028E048E363E7B4
:1018D000C7016ADC09E028E048E364E7C70164DC8B
:1018E00028E048E365E7C7015FDC06E028E048E35D
:1018F00066E7C70159DC0BE611E020E635E048E376
:1019000068E7C701C5DC2A960FB6F894DEBF0FBEA4
:10191000CDBFDF91CF911F910F91FF90EF90DF909E
:10192000CF90BF90AF900895CF92DF92EF92FF9249
:101930000F931F93CF93DF93EC016B017A01FB01AF
:10194000E052FF4F808140E1BE0190E017D68E014A
:1019500020E635E048E260E0C7019ADCF601EF518D
:10196000FF4F808140E1BE0190E008D620E635E0DF
:1019700048E260E1C7018CDCF601EE51FF4F808147
:1019800040E1BE0190E0FAD520E635E048E260E2B1
:10199000C7017EDCF601ED51FF4F808140E1BE01C1
:1019A00090E0ECD520E635E048E260E3C70170DC6A
:1019B000F601EC51FF4F808140E1BE0190E0DED5A1
:1019C00020E635E048E260E4C70162DCF601EB5155
:1019D000FF4F808140E1BE0190E0D0D520E635E0A8
:1019E00048E260E5C70154DCF601EA51FF4F80810F
:1019F00040E1BE0190E0C2D520E635E048E260E675
:101A0000C70146DCF601E951FF4F808140E1BE018C
:101A100090E0B4D520E635E048E260E7C70138DC65
:101A2000F601E851FF4F808140E1BE0190E0A6D56C
:101A300020E635E040E360E0C7012ADCF601E7512B
:101A4000FF4F808140E1BE0190E098D520E635E06F
:101A500040E360E1C7011CDCF601E651FF4F8081E5
:101A600040E1BE0190E08AD520E635E040E360E247
:101A7000C7010EDCF601E551FF4F808140E1BE0158
:101A800090E07CD520E635E040E360E3C70100DC70
:101A9000F601E451FF4F808140E1BE0190E06ED538
:101AA00020E635E040E360E4C701F2DBF601E351F4
:101AB000FF4F808140E1BE0190E060D520E635E037
:101AC00040E360E5C701E4DBF601E251FF4F8081AE
:101AD00040E1BE0190E052D520E635E040E360E60B
:101AE000C701D6DBF601E151FF4F808140E1BE0125
:101AF00090E044D520E635E040E360E7C701C8DB6D
:101B0000F601E051FF4F808140E1BE0190E036D503
:101B100020E635E048E360E0C701BADBF601EF50AC
:101B2000FF4F808140E1BE0190E028D520E635E0FE
:101B300048E360E1C701ACDBF601EE50FF4F808166
:101B400040E1BE0190E01AD520E635E048E360E2CE
:101B5000C7019EDBF601ED50FF4F808140E1BE01E1
:101B600090E00CD520E635E048E360E3C70190DB68
:101B7000F601EC50FF4F808140E1BE0190E0FED4C1
:101B800020E635E048E360E4C70182DBF601EB5074
:101B9000FF4F808140E1BE0190E0F0D420E635E0C7
:101BA00048E360E5C70174DBF601EA50FF4F80812E
:101BB00040E1BE0190E0E2D420E635E048E360E693
:101BC000C70166DBF601E950FF4F808140E1BE01AD
:101BD00090E0D4D420E635E048E360E7C70158DB65
:101BE000F601E750FF4F608170E080E090E08ED317
:101BF00020E043E0A4D40DE611E020E635E040E02B
:101C000060E0C70145DB8E0120E635E040E060E59D
:101C1000C7013EDBF601E650FF4F608170E080E0D7
:101C200090E074D320E043E08AD408E711E020E696
:101C300035E048E060E0C7012BDB8E0120E635E0AF
:101C400048E060E5C70124DBF601E850FF4F608102
:101C500070E080E090E05AD320E043E070D402E8E6
:101C600011E020E635E040E160E0C70111DB8E01C4
:101C700020E635E040E160E5C7010ADBF601E5500A
:101C8000FF4F608170E080E090E040D320E043E0CF
:101C900056D40BE811E020E635E048E160E0C701EA
:101CA000F7DA8E0120E635E048E160E5C701F0DAB9
:101CB000F601E450FF4F608170E080E090E026D3B1
:101CC00020E043E03CD408E911E020E635E040E2C2
:101CD00060E0C701DDDA8E0120E635E040E260E534
:101CE000C701D6DADF91CF911F910F91FF90EF904E
:101CF000DF90CF9008953F924F925F926F927F92C4
:101D00008F929F92AF92BF92CF92DF92EF92FF920B
:101D10000F931F93CF93DF93CDB7DEB72A970FB6FC
:101D2000F894DEBF0FBECDBF4A013B0181E2680ED1
:101D3000711CA12CB12C312C39C0F7013197608175
:101D400070E0762F6627F7018081680F711D072EDE
:101D5000000C880B990BDCD220E030E04AE754E419
:101D60006DD28E010F5F1F4F23E041E0E8D324E1E5
:101D700035E0442D652DC4018BDAF9E65F1661F07C
:101D80008FEFC81AD80AE2E0EE0EF11CF5E15F0E03
:101D90008EE3C816D10489F6E6E0AE0EB11CFCE075
:101DA0006F0E711C82E4A816B10449F0EEE3AE1682
:101DB000B10494F74A2C73016501532CBECF2A96C7
:101DC0000FB6F894DEBF0FBECDBFDF91CF911F914C
:101DD0000F91FF90EF90DF90CF90BF90AF909F90CA
:101DE0008F907F906F905F904F903F900895209AD2
:101DF000289A10928000E1E8F0E080818260808380
:101E000080818860808380E29EE490938900809343
:101E10008800EFE6F0E080818260808384B5896687
:101E200084BD279A82E387BD83EE95E00E94F40487
:101E300084EE95E00E94390587B1EAEBF1E086E295
:101E400090E09783868325E0228327B1E2EBF1E0DF
:101E50009783868326E0228327B1EAEAF1E097831D
:101E6000868387E0828322E131E040E060E083EE18
:101E700091E0EDDA63EE75E083EE91E071D92FEF3A
:101E800087EA91E6215080409040E1F700C00000D1
:101E900083EE91E04CDB81E08093A60178940AEA1E
:101EA00011E0CAEBD1E00F2EF9E29F2EF02D0F2E9C
:101EB000F2E3AF2EF02D0F2EF0EEEF2EF6E0FF2E18
:101EC000F02D0F2EF4E0CF2EF6E0DF2EF02D0F2EAA
:101ED000FCE78F2EF02DBB24B3948091A901909143
:101EE000A801981709F488C08093A8018091A601E1
:101EF000823071F0833009F43EC0813009F043C074
:101F000043EE51E064EE75E08DEC91E0A9DB3DC05D
:101F100043EE51E064EE75E083EC91E005DD8091E5
:101F2000A901899D912D11249695969596959A9D36
:101F300080191124811115C0F701808181508E3FD5
:101F400080F060E084EE95E00E94CC05D092A40180
:101F5000C092A3018092A20160E084EE95E00E940D
:101F60006906F7018081813081F460E084EE95E0BC
:101F70000E94A2060AC043EE51E064EE75E082ECD6
:101F800091E0B9DE02C0B092A6018091A6019091C5
:101F9000A501891741F0988191111CC0F801908129
:101FA000911118C02EC08881882341F083EE91E002
:101FB000BEDA8091A6018F5F8093A601F80180812F
:101FC000882341F083EE91E0B2DA8091A60181503E
:101FD0008093A601F8018381882319F087B5855085
:101FE00087BD8B81882319F087B58B5F87BD63EE32
:101FF00075E083EE91E0B4D8F5E0FA95F1F70000D2
:102000006CCF8093A501CFCF1F920F920FB60F9286
:1020100011240BB60F922F933F934F935F936F93BF
:102020007F938F939F93AF93BF93EF93FF9384EE30
:1020300095E00E9478078AEB91E00E94710482EBA0
:1020400091E00E9471048AEA91E00E94710464EEBA
:1020500075E08DEC91E072DA8091A7018F5F8A3094
:1020600019F08093A70107C01092A7018091A901E0
:102070008F5F8093A90180914907853608F02898E1
:10208000FF91EF91BF91AF919F918F917F916F9150
:102090005F914F913F912F910F900BBE0F900FBE0C
:1020A0000F901F9018951F920F920FB60F92112448
:1020B0000BB60F922F933F934F935F936F937F9342
:1020C0008F939F93AF93BF93CF93EF93FF93C09161
:1020D000ED008091E10085FF1DC080ED8093ED0053
:1020E0008091EE0085FF14C06091A3017091A4015E
:1020F0004091A20184EE95E00E94C706EEEEF0E06A
:1021000080818F7D8083EEEDF6E080818F5F80831C
:10211000C093ED008091E10086FF13C080EE8093B4
:10212000ED008091EE0086FF0AC0EEEEF0E08081C7
:102130008F7B8083EEEDF6E080818F5F8083C0939C
:10214000ED00FF91EF91CF91BF91AF919F918F9152
:102150007F916F915F914F913F912F910F900BBEA7
:102160000F900FBE0F901F9018955058BB27AA27AD
:102170000ED044C135D130F03AD120F031F49F3F38
:1021800011F41EF42AC10EF4E095E7FB20C1E92FFB
:1021900046D180F3BA17620773078407950718F0D2
:1021A00071F49EF55EC10EF4E0950B2EBA2FA02DB2
:1021B0000B01B90190010C01CA01A0011124FF27F4
:1021C000591B99F0593F50F4503E68F11A16F040EF
:1021D000A22F232F342F4427585FF3CF46953795EE
:1021E0002795A795F0405395C9F77EF41F16BA0BB3
:1021F000620B730B840BBAF09150A1F0FF0FBB1F61
:10220000661F771F881FC2F70EC0BA0F621F731FA9
:10221000841F48F4879577956795B795F7959E3F06
:1022200008F0B3CF9395880F08F09927EE0F979594
:1022300087950895A8D008F481E008950CD0DEC0F9
:10224000D6D040F0CDD030F021F45F3F19F0BFC0C0
:10225000511108C1C2C0E3D098F39923C9F35523A3
:10226000B1F3951B550BBB27AA2762177307840789
:1022700038F09F5F5F4F220F331F441FAA1FA9F33F
:1022800033D00E2E3AF0E0E830D091505040E69531
:10229000001CCAF729D0FE2F27D0660F771F881F92
:1022A000BB1F261737074807AB07B0E809F0BB0B81
:1022B000802DBF01FF2793585F4F2AF09E3F5105A5
:1022C00068F085C0CFC05F3FECF3983EDCF38695A5
:1022D00077956795B795F7959F5FC9F7880F911D1B
:1022E0009695879597F90895E1E0660F771F881F07
:1022F000BB1F621773078407BA0720F0621B730BBA
:10230000840BBA0BEE1F88F7E0950895E89409C096
:1023100097FB3EF490958095709561957F4F8F4F18
:102320009F4F9923A9F0F92F96E9BB279395F6952E
:10233000879577956795B795F111F8CFFAF4BB0FAC
:1023400011F460FF1BC06F5F7F4F8F4F9F4F16C010
:10235000882311F096E911C0772321F09EE8872F9A
:10236000762F05C0662371F096E8862F70E060E056
:102370002AF09A95660F771F881FDAF7880F9695CF
:10238000879597F90895990F0008550FAA0BE0E873
:10239000FEEF16161706E807F907C0F01216130627
:1023A000E407F50798F0621B730B840B950B39F467
:1023B0000A2661F0232B242B252B21F408950A26CD
:1023C00009F4A140A6958FEF811D811D089597F90D
:1023D0009F6780E870E060E008959FEF80EC0895CB
:1023E00000240A94161617061806090608950024F4
:1023F0000A9412161306140605060895092E03946E
:10240000000C11F4882352F0BB0F40F4BF2B11F4E1
:1024100060FF04C06F5F7F4F8F4F9F4F089557FD40
:102420009058440F551F59F05F3F71F04795880F42
:1024300097FB991F61F09F3F79F0879508951216D9
:1024400013061406551FF2CF4695F1DF08C0161685
:1024500017061806991FF1CF869571056105089436
:102460000895E894BB2766277727CB0197F908954D
:102470008ADF08F48FEF08950BD0C0CFB1DF28F0CA
:10248000B6DF18F0952309F0A2CFA7CF1124EACF29
:10249000C6DFA0F3959FD1F3950F50E0551F629FC3
:1024A000F001729FBB27F00DB11D639FAA27F00DAD
:1024B000B11DAA1F649F6627B00DA11D661F829FD4
:1024C0002227B00DA11D621F739FB00DA11D621FB9
:1024D000839FA00D611D221F749F3327A00D611DD6
:1024E000231F849F600D211D822F762F6A2F1124B8
:1024F0009F5750408AF0E1F088234AF0EE0FFF1F0B
:10250000BB1F661F771F881F91505040A9F79E3F41
:10251000510570F05CCFA6CF5F3FECF3983EDCF343
:10252000869577956795B795F795E7959F5FC1F77E
:10253000FE2B880F911D9695879597F90895EF9238
:102540000F931F93CF93DF93E80147FD02C034E060
:1025500001C034E1E42F440FFF0BF7FF03C0F195F6
:10256000E195F109E32E022F2E2FAE012AD0CE01E4
:10257000DF91CF911F910F91EF900895BB274A30C3
:1025800031F4992322F4BDE2909581959F4F01C0CB
:10259000BB27FB015527AA27880F991FAA1FA4173D
:1025A00010F0A41B83955051B9F7A05DAA3308F031
:1025B000A95DA193009779F7B111B1931192CB0165
:1025C00065C24F925F926F927F929F92AF92BF923D
:1025D000CF92DF92EF92FF920F931F93CF93DF93EF
:1025E000CDB7DEB729970FB6F894DEBF0FBECDBFCB
:1025F0006A01122FB02E2BE3201720F0FF24F39452
:10260000F00E02C0BCE3FB2E0F2D27E0AE014F5FA2
:102610005F4F64D1AC018981982F9970913031F06E
:10262000E1FC06C0E0FE06C090E205C09DE203C0EA
:102630009BE201C090E0EE2DE07183FF3CC0911160
:1026400002C083E001C084E0811718F4212F281B09
:1026500001C020E0E1110BC0F601822F30E2882397
:1026600019F031938150FBCFC20ED11C20E0992389
:1026700029F0D6019C93F60131966F01C6010396AD
:10268000E2FE0AC03EE4D6013C9341E411964C932D
:10269000119712963C9306C03EE6F601308341E660
:1026A00041833283FC01322F40E2332309F442C0DC
:1026B00041933150FACF82FF44C0911102C083E0B0
:1026C00001C084E0811718F4212F281B01C020E0ED
:1026D000E1110BC0F601822F30E2882319F031930B
:1026E0008150FBCFC20ED11C20E0992329F0D601E6
:1026F0009C93F60131966F01C6010396E2FE0BC072
:1027000039E4D6013C933EE411963C93119736E4AC
:1027100012963C9307C039E6F60130833EE63183DA
:1027200036E63283FC01322F40E2332319F0419325
:102730003150FBCFFC01E20FF11D10828EEF9FEFB5
:10274000B7C0F1E0911101C0F0E06F2F70E01416F6
:10275000150624F49A012F5F3F4F02C021E030E0BC
:10276000260F371FBB2029F06B2D70E06F5F7F4F66
:1027700002C060E070E0260F371F612F70E026175F
:1027800037071CF4121B212F01C020E03E2D3871A9
:1027900059F4D601322F60E2332319F06D93315092
:1027A000FBCFC20ED11C20E0FF2331F0D6019C9359
:1027B000B6016F5F7F4F6B01E1110BC0F601922FE5
:1027C00030E3992319F031939150FBCFC20ED11C05
:1027D00020E09F2D940F3A81782F7071A72E84FFEF
:1027E00003C0313309F49150191624F4993018F0CC
:1027F00098E001C091E0E42F852F57FF02C0E0E090
:1028000080E06E2F782FE0E0F0E0AEE29A2E3A0101
:10281000691A71082A01461A570A0B2D10E0119502
:10282000019511096F3F8FEF780729F4D6019C922B
:10283000C60101966C014617570784F066167706A5
:102840006CF47F01E40CF51CA1E0B0E0AC0FBD1FFF
:10285000EA0EFB1ED7011196BC9002C090E3B92E80
:10286000615071093196C60101967C0160177107AC
:1028700024F0D601BC926C01D5CF6417750741F4E2
:10288000363320F4353321F4A11002C081E3B82E91
:10289000F601B082F701822F90E2882319F091931C
:1028A0008150FBCFF701E20FF11D108280E090E034
:1028B00029960FB6F894DEBF0FBECDBFDF91CF9142
:1028C0001F910F91FF90EF90DF90CF90BF90AF904E
:1028D0009F907F906F905F904F900895283008F000
:1028E00027E03327DA01990F311D87FD91600096AB
:1028F0006105710539F432602E5F3D9330E32A950E
:10290000E1F708959F3F30F080387105610509F0C7
:102910003C5F3C5F3D93913008F08068911DDF93F0
:10292000CF931F930F93FF92EF92192F987F969555
:10293000E92F96959695E90FFF27EE5FF74F9927B8
:102940003327EE24FF24A701E7010590089407949C
:1029500028F4360FE71EF81E491F511D660F771F1A
:10296000881F991F0694A1F70590079428F4E70E95
:10297000F81E491F561FC11D770F881F991F661F1C
:102980000694A1F70590079428F4F80E491F561FE6
:10299000C71FD11D880F991F661F771F0694A1F7C7
:1029A0000590079420F4490F561FC71FD81F990F91
:1029B000661F771F881F0694A9F7849110951770DA
:1029C00041F0D695C79557954795F794E7941A9592
:1029D000C1F7E8EAF7E06894159015913591659193
:1029E000959105907FE27395E118F10A430B560B20
:1029F000C90BD009C0F7E10CF11E431F561FC91FB8
:102A0000D01D7EF4703311F48A95E6CFE89401501E
:102A100030F0080F0AF40027021708F4202F23953E
:102A2000022F7A3328F079E37D932A95E9F710C0D5
:102A30007D932A9589F6069497956795379517950E
:102A40001794E118F10A430B560BC90BD00998F003
:102A500023957E9173957A3308F070E37C9320136D
:102A6000B8F77E9170617D9330F0839571E37D932B
:102A700070E32A95E1F71124EF90FF900F911F91D9
:102A8000CF91DF91992787FD90950895DC01FC0196
:102A9000672F71917723E1F7329704C07C916D9392
:102AA00070836291AE17BF07C8F30895F894FFCF03
:102AB00050696C6F74204375722E0041004D61782F
:102AC00043686172507772006B5700417661696CA0
:102AD0004368617250777200534F432D3E426174D8
:102AE000740025004C6164756E672F6D696E00255A
:102AF0002F6D00456E657267792D3E4261747400DA
:102B00006B00576800534F482D3E426174743A0081
:102B1000426174742E54656D702E00430053656ECF
:102B200064436F756E743A00496E74436F756E74CA
:102B30003A005450436F756E743A00537472656175
:102B40006D436F756E743A0054505F5374617475C1
:022B5000730010
:00000001FF
